{
  "contractName": "DigitalIdentityCard",
  "abi": [
    {
      "constant": true,
      "inputs": [
        {
          "name": "",
          "type": "address"
        }
      ],
      "name": "identities",
      "outputs": [
        {
          "name": "name",
          "type": "string"
        },
        {
          "name": "birthday",
          "type": "uint256"
        },
        {
          "name": "driversLicenseNumber",
          "type": "uint256"
        },
        {
          "name": "owner",
          "type": "address"
        }
      ],
      "payable": false,
      "stateMutability": "view",
      "type": "function",
      "signature": "0xf653b81e"
    },
    {
      "anonymous": false,
      "inputs": [
        {
          "indexed": true,
          "name": "owner",
          "type": "address"
        },
        {
          "indexed": false,
          "name": "name",
          "type": "string"
        },
        {
          "indexed": false,
          "name": "birthday",
          "type": "uint256"
        },
        {
          "indexed": false,
          "name": "driversLicenseNumber",
          "type": "uint256"
        }
      ],
      "name": "IdentityCreated",
      "type": "event",
      "signature": "0x9b22ce3fd93df15b83cfe336368408e4f7f0d854426511805ba760b1713a82fd"
    },
    {
      "constant": false,
      "inputs": [
        {
          "name": "_name",
          "type": "string"
        },
        {
          "name": "_birthday",
          "type": "uint256"
        },
        {
          "name": "_driversLicenseNumber",
          "type": "uint256"
        }
      ],
      "name": "createIdentity",
      "outputs": [],
      "payable": false,
      "stateMutability": "nonpayable",
      "type": "function",
      "signature": "0x4b2df9b9"
    },
    {
      "constant": true,
      "inputs": [
        {
          "name": "_owner",
          "type": "address"
        }
      ],
      "name": "getIdentity",
      "outputs": [
        {
          "name": "",
          "type": "string"
        },
        {
          "name": "",
          "type": "uint256"
        },
        {
          "name": "",
          "type": "uint256"
        }
      ],
      "payable": false,
      "stateMutability": "view",
      "type": "function",
      "signature": "0x2fea7b81"
    }
  ],
  "bytecode": "0x608060405234801561001057600080fd5b5061090a806100206000396000f3fe608060405260043610610057576000357c0100000000000000000000000000000000000000000000000000000000900463ffffffff1680632fea7b811461005c5780634b2df9b914610134578063f653b81e14610210575b600080fd5b34801561006857600080fd5b506100ab6004803603602081101561007f57600080fd5b81019080803573ffffffffffffffffffffffffffffffffffffffff16906020019092919050505061031b565b6040518080602001848152602001838152602001828103825285818151815260200191508051906020019080838360005b838110156100f75780820151818401526020810190506100dc565b50505050905090810190601f1680156101245780820380516001836020036101000a031916815260200191505b5094505050505060405180910390f35b34801561014057600080fd5b5061020e6004803603606081101561015757600080fd5b810190808035906020019064010000000081111561017457600080fd5b82018360208201111561018657600080fd5b803590602001918460018302840111640100000000831117156101a857600080fd5b91908080601f016020809104026020016040519081016040528093929190818152602001838380828437600081840152601f19601f82011690508083019250505050505050919291929080359060200190929190803590602001909291905050506104a0565b005b34801561021c57600080fd5b5061025f6004803603602081101561023357600080fd5b81019080803573ffffffffffffffffffffffffffffffffffffffff169060200190929190505050610712565b60405180806020018581526020018481526020018373ffffffffffffffffffffffffffffffffffffffff1673ffffffffffffffffffffffffffffffffffffffff168152602001828103825286818151815260200191508051906020019080838360005b838110156102dd5780820151818401526020810190506102c2565b50505050905090810190601f16801561030a5780820380516001836020036101000a031916815260200191505b509550505050505060405180910390f35b60606000806103286107fa565b6000808673ffffffffffffffffffffffffffffffffffffffff1673ffffffffffffffffffffffffffffffffffffffff16815260200190815260200160002060806040519081016040529081600082018054600181600116156101000203166002900480601f01602080910402602001604051908101604052809291908181526020018280546001816001161561010002031660029004801561040b5780601f106103e05761010080835404028352916020019161040b565b820191906000526020600020905b8154815290600101906020018083116103ee57829003601f168201915b5050505050815260200160018201548152602001600282015481526020016003820160009054906101000a900473ffffffffffffffffffffffffffffffffffffffff1673ffffffffffffffffffffffffffffffffffffffff1673ffffffffffffffffffffffffffffffffffffffff16815250509050806000015181602001518260400151829250935093509350509193909250565b60008060003373ffffffffffffffffffffffffffffffffffffffff1673ffffffffffffffffffffffffffffffffffffffff16815260200190815260200160002060020154141515610559576040517f08c379a00000000000000000000000000000000000000000000000000000000081526004018080602001828103825260178152602001807f4964656e7469747920616c72656164792065786973747300000000000000000081525060200191505060405180910390fd5b6080604051908101604052808481526020018381526020018281526020013373ffffffffffffffffffffffffffffffffffffffff168152506000803373ffffffffffffffffffffffffffffffffffffffff1673ffffffffffffffffffffffffffffffffffffffff16815260200190815260200160002060008201518160000190805190602001906105eb929190610839565b50602082015181600101556040820151816002015560608201518160030160006101000a81548173ffffffffffffffffffffffffffffffffffffffff021916908373ffffffffffffffffffffffffffffffffffffffff1602179055509050503373ffffffffffffffffffffffffffffffffffffffff167f9b22ce3fd93df15b83cfe336368408e4f7f0d854426511805ba760b1713a82fd8484846040518080602001848152602001838152602001828103825285818151815260200191508051906020019080838360005b838110156106d15780820151818401526020810190506106b6565b50505050905090810190601f1680156106fe5780820380516001836020036101000a031916815260200191505b5094505050505060405180910390a2505050565b6000602052806000526040600020600091509050806000018054600181600116156101000203166002900480601f0160208091040260200160405190810160405280929190818152602001828054600181600116156101000203166002900480156107be5780601f10610793576101008083540402835291602001916107be565b820191906000526020600020905b8154815290600101906020018083116107a157829003601f168201915b5050505050908060010154908060020154908060030160009054906101000a900473ffffffffffffffffffffffffffffffffffffffff16905084565b608060405190810160405280606081526020016000815260200160008152602001600073ffffffffffffffffffffffffffffffffffffffff1681525090565b828054600181600116156101000203166002900490600052602060002090601f016020900481019282601f1061087a57805160ff19168380011785556108a8565b828001600101855582156108a8579182015b828111156108a757825182559160200191906001019061088c565b5b5090506108b591906108b9565b5090565b6108db91905b808211156108d75760008160009055506001016108bf565b5090565b9056fea165627a7a723058205b026005f9e4b9132cac09035dcf5b24c3cc8cc2b0d9dc4ed696ae3a2b1fba160029",
  "source": "pragma solidity >=0.4.22 <0.9.0;\n\ncontract DigitalIdentityCard {\n    struct Identity {\n        string name;\n        uint256 birthday;\n        uint256 driversLicenseNumber;\n        address owner;\n    }\n\n    mapping(address => Identity) public identities;\n\n    event IdentityCreated(address indexed owner, string name, uint256 birthday, uint256 driversLicenseNumber);\n\n    function createIdentity(string memory _name, uint256 _birthday, uint256 _driversLicenseNumber) public {\n        require(identities[msg.sender].driversLicenseNumber == 0, \"Identity already exists\");\n        identities[msg.sender] = Identity(_name, _birthday, _driversLicenseNumber, msg.sender);\n        emit IdentityCreated(msg.sender, _name, _birthday, _driversLicenseNumber);\n    }\n\n    function getIdentity(address _owner) public view returns (string memory, uint256, uint256) {\n        Identity memory identity = identities[_owner];\n        return (identity.name, identity.birthday, identity.driversLicenseNumber);\n    }\n}\n",
  "sourcePath": "/Users/Everett/Desktop/Zk-IDcheck/digital-id/contracts/idCard.sol",
  "compiler": {
    "name": "solc",
    "version": "0.5.0+commit.1d4f565a.Emscripten.clang"
  },
  "schemaVersion": "3.0.1",
  "updatedAt": "2024-03-23T21:59:31.072Z",
  "devdoc": {
    "methods": {}
  },
  "userdoc": {
    "methods": {}
  }
}