{
  "contractName": "DigitalIdentityCard",
  "abi": [
    {
      "constant": true,
      "inputs": [
        {
          "name": "",
          "type": "uint256"
        }
      ],
      "name": "driversLicenseNumbers",
      "outputs": [
        {
          "name": "",
          "type": "address"
        }
      ],
      "payable": false,
      "stateMutability": "view",
      "type": "function",
      "signature": "0xb8a91be1"
    },
    {
      "constant": true,
      "inputs": [
        {
          "name": "",
          "type": "address"
        }
      ],
      "name": "identities",
      "outputs": [
        {
          "name": "name",
          "type": "string"
        },
        {
          "name": "birthday",
          "type": "string"
        },
        {
          "name": "driversLicenseNumber",
          "type": "uint256"
        },
        {
          "name": "owner",
          "type": "address"
        }
      ],
      "payable": false,
      "stateMutability": "view",
      "type": "function",
      "signature": "0xf653b81e"
    },
    {
      "anonymous": false,
      "inputs": [
        {
          "indexed": true,
          "name": "owner",
          "type": "address"
        },
        {
          "indexed": false,
          "name": "name",
          "type": "string"
        },
        {
          "indexed": false,
          "name": "birthday",
          "type": "string"
        },
        {
          "indexed": false,
          "name": "driversLicenseNumber",
          "type": "uint256"
        }
      ],
      "name": "IdentityCreated",
      "type": "event",
      "signature": "0xb44d04e3995e2588cd8d1bf7a7f2ae78c07025d4f4d28c651612bcf4519c241f"
    },
    {
      "constant": false,
      "inputs": [
        {
          "name": "_name",
          "type": "string"
        },
        {
          "name": "_birthday",
          "type": "string"
        },
        {
          "name": "_driversLicenseNumber",
          "type": "uint256"
        }
      ],
      "name": "createIdentity",
      "outputs": [],
      "payable": false,
      "stateMutability": "nonpayable",
      "type": "function",
      "signature": "0x584f09b0"
    },
    {
      "constant": true,
      "inputs": [
        {
          "name": "_owner",
          "type": "address"
        }
      ],
      "name": "getIdentity",
      "outputs": [
        {
          "name": "",
          "type": "string"
        },
        {
          "name": "",
          "type": "string"
        },
        {
          "name": "",
          "type": "uint256"
        }
      ],
      "payable": false,
      "stateMutability": "view",
      "type": "function",
      "signature": "0x2fea7b81"
    }
  ],
  "bytecode": "0x608060405234801561001057600080fd5b50610e29806100206000396000f3fe608060405260043610610062576000357c0100000000000000000000000000000000000000000000000000000000900463ffffffff1680632fea7b8114610067578063584f09b0146101a4578063b8a91be11461030d578063f653b81e14610388575b600080fd5b34801561007357600080fd5b506100b66004803603602081101561008a57600080fd5b81019080803573ffffffffffffffffffffffffffffffffffffffff1690602001909291905050506104f8565b604051808060200180602001848152602001838103835286818151815260200191508051906020019080838360005b838110156101005780820151818401526020810190506100e5565b50505050905090810190601f16801561012d5780820380516001836020036101000a031916815260200191505b50838103825285818151815260200191508051906020019080838360005b8381101561016657808201518184015260208101905061014b565b50505050905090810190601f1680156101935780820380516001836020036101000a031916815260200191505b509550505050505060405180910390f35b3480156101b057600080fd5b5061030b600480360360608110156101c757600080fd5b81019080803590602001906401000000008111156101e457600080fd5b8201836020820111156101f657600080fd5b8035906020019184600183028401116401000000008311171561021857600080fd5b91908080601f016020809104026020016040519081016040528093929190818152602001838380828437600081840152601f19601f8201169050808301925050505050505091929192908035906020019064010000000081111561027b57600080fd5b82018360208201111561028d57600080fd5b803590602001918460018302840111640100000000831117156102af57600080fd5b91908080601f016020809104026020016040519081016040528093929190818152602001838380828437600081840152601f19601f82011690508083019250505050505050919291929080359060200190929190505050610719565b005b34801561031957600080fd5b506103466004803603602081101561033057600080fd5b8101908080359060200190929190505050610b66565b604051808273ffffffffffffffffffffffffffffffffffffffff1673ffffffffffffffffffffffffffffffffffffffff16815260200191505060405180910390f35b34801561039457600080fd5b506103d7600480360360208110156103ab57600080fd5b81019080803573ffffffffffffffffffffffffffffffffffffffff169060200190929190505050610b99565b6040518080602001806020018581526020018473ffffffffffffffffffffffffffffffffffffffff1673ffffffffffffffffffffffffffffffffffffffff168152602001838103835287818151815260200191508051906020019080838360005b83811015610453578082015181840152602081019050610438565b50505050905090810190601f1680156104805780820380516001836020036101000a031916815260200191505b50838103825286818151815260200191508051906020019080838360005b838110156104b957808201518184015260208101905061049e565b50505050905090810190601f1680156104e65780820380516001836020036101000a031916815260200191505b50965050505050505060405180910390f35b6060806000610505610d19565b600160008673ffffffffffffffffffffffffffffffffffffffff1673ffffffffffffffffffffffffffffffffffffffff16815260200190815260200160002060806040519081016040529081600082018054600181600116156101000203166002900480601f0160208091040260200160405190810160405280929190818152602001828054600181600116156101000203166002900480156105e95780601f106105be576101008083540402835291602001916105e9565b820191906000526020600020905b8154815290600101906020018083116105cc57829003601f168201915b50505050508152602001600182018054600181600116156101000203166002900480601f01602080910402602001604051908101604052809291908181526020018280546001816001161561010002031660029004801561068b5780601f106106605761010080835404028352916020019161068b565b820191906000526020600020905b81548152906001019060200180831161066e57829003601f168201915b50505050508152602001600282015481526020016003820160009054906101000a900473ffffffffffffffffffffffffffffffffffffffff1673ffffffffffffffffffffffffffffffffffffffff1673ffffffffffffffffffffffffffffffffffffffff16815250509050806000015181602001518260400151829250819150935093509350509193909250565b600073ffffffffffffffffffffffffffffffffffffffff1660008083815260200190815260200160002060009054906101000a900473ffffffffffffffffffffffffffffffffffffffff1673ffffffffffffffffffffffffffffffffffffffff16141515610815576040517f08c379a00000000000000000000000000000000000000000000000000000000081526004018080602001828103825260268152602001807f4472697665722773206c6963656e7365206e756d62657220616c72656164792081526020017f657869737473000000000000000000000000000000000000000000000000000081525060400191505060405180910390fd5b6000600160003373ffffffffffffffffffffffffffffffffffffffff1673ffffffffffffffffffffffffffffffffffffffff1681526020019081526020016000206000018054600181600116156101000203166002900490501415156108e3576040517f08c379a00000000000000000000000000000000000000000000000000000000081526004018080602001828103825260178152602001807f4964656e7469747920616c72656164792065786973747300000000000000000081525060200191505060405180910390fd5b3360008083815260200190815260200160002060006101000a81548173ffffffffffffffffffffffffffffffffffffffff021916908373ffffffffffffffffffffffffffffffffffffffff1602179055506080604051908101604052808481526020018381526020018281526020013373ffffffffffffffffffffffffffffffffffffffff16815250600160003373ffffffffffffffffffffffffffffffffffffffff1673ffffffffffffffffffffffffffffffffffffffff16815260200190815260200160002060008201518160000190805190602001906109c7929190610d58565b5060208201518160010190805190602001906109e4929190610d58565b506040820151816002015560608201518160030160006101000a81548173ffffffffffffffffffffffffffffffffffffffff021916908373ffffffffffffffffffffffffffffffffffffffff1602179055509050503373ffffffffffffffffffffffffffffffffffffffff167fb44d04e3995e2588cd8d1bf7a7f2ae78c07025d4f4d28c651612bcf4519c241f848484604051808060200180602001848152602001838103835286818151815260200191508051906020019080838360005b83811015610abe578082015181840152602081019050610aa3565b50505050905090810190601f168015610aeb5780820380516001836020036101000a031916815260200191505b50838103825285818151815260200191508051906020019080838360005b83811015610b24578082015181840152602081019050610b09565b50505050905090810190601f168015610b515780820380516001836020036101000a031916815260200191505b509550505050505060405180910390a2505050565b60006020528060005260406000206000915054906101000a900473ffffffffffffffffffffffffffffffffffffffff1681565b6001602052806000526040600020600091509050806000018054600181600116156101000203166002900480601f016020809104026020016040519081016040528092919081815260200182805460018160011615610100020316600290048015610c455780601f10610c1a57610100808354040283529160200191610c45565b820191906000526020600020905b815481529060010190602001808311610c2857829003601f168201915b505050505090806001018054600181600116156101000203166002900480601f016020809104026020016040519081016040528092919081815260200182805460018160011615610100020316600290048015610ce35780601f10610cb857610100808354040283529160200191610ce3565b820191906000526020600020905b815481529060010190602001808311610cc657829003601f168201915b5050505050908060020154908060030160009054906101000a900473ffffffffffffffffffffffffffffffffffffffff16905084565b608060405190810160405280606081526020016060815260200160008152602001600073ffffffffffffffffffffffffffffffffffffffff1681525090565b828054600181600116156101000203166002900490600052602060002090601f016020900481019282601f10610d9957805160ff1916838001178555610dc7565b82800160010185558215610dc7579182015b82811115610dc6578251825591602001919060010190610dab565b5b509050610dd49190610dd8565b5090565b610dfa91905b80821115610df6576000816000905550600101610dde565b5090565b9056fea165627a7a72305820337b70d6fbcd1036ba92aee775e99e471440d126b87f231c8d0849bc4a8b90840029",
  "source": "pragma solidity >=0.4.22 <0.9.0;\n\ncontract DigitalIdentityCard {\n    struct Identity {\n        string name;\n        string birthday;\n        uint256 driversLicenseNumber;\n        address owner;\n    }\n\n    mapping(uint256 => address) public driversLicenseNumbers; // Mapping to track existing driver's license numbers\n    mapping(address => Identity) public identities;\n\n    event IdentityCreated(address indexed owner, string name, string birthday, uint256 driversLicenseNumber);\n\n    function createIdentity(string memory _name, string memory _birthday, uint256 _driversLicenseNumber) public {\n        // Check if driver's license number already exists\n        require(driversLicenseNumbers[_driversLicenseNumber] == address(0), \"Driver's license number already exists\");\n        \n        // Check if identity already exists for the caller\n        require(bytes(identities[msg.sender].name).length == 0, \"Identity already exists\");\n\n        // Add the driver's license number to the mapping\n        driversLicenseNumbers[_driversLicenseNumber] = msg.sender;\n\n        // Create the identity\n        identities[msg.sender] = Identity(_name, _birthday, _driversLicenseNumber, msg.sender);\n        \n        // Emit event\n        emit IdentityCreated(msg.sender, _name, _birthday, _driversLicenseNumber);\n    }\n\n    function getIdentity(address _owner) public view returns (string memory, string memory, uint256) {\n        Identity memory identity = identities[_owner];\n        return (identity.name, identity.birthday, identity.driversLicenseNumber);\n    }\n}\n",
  "sourcePath": "/Users/Everett/Desktop/Zk-IDcheck/digital-id/contracts/idCard.sol",
  "compiler": {
    "name": "solc",
    "version": "0.5.0+commit.1d4f565a.Emscripten.clang"
  },
  "schemaVersion": "3.0.1",
  "updatedAt": "2024-03-23T22:50:51.926Z",
  "devdoc": {
    "methods": {}
  },
  "userdoc": {
    "methods": {}
  }
}