{
  "contractName": "DigitalIdentityCard",
  "abi": [
    {
      "constant": true,
      "inputs": [
        {
          "name": "",
          "type": "uint256"
        }
      ],
      "name": "isDriverLicenseNumberRegistered",
      "outputs": [
        {
          "name": "",
          "type": "bool"
        }
      ],
      "payable": false,
      "stateMutability": "view",
      "type": "function",
      "signature": "0x0f903210"
    },
    {
      "constant": true,
      "inputs": [
        {
          "name": "",
          "type": "address"
        }
      ],
      "name": "identities",
      "outputs": [
        {
          "name": "name",
          "type": "string"
        },
        {
          "name": "birthday",
          "type": "string"
        },
        {
          "name": "driversLicenseNumber",
          "type": "uint256"
        },
        {
          "name": "owner",
          "type": "address"
        }
      ],
      "payable": false,
      "stateMutability": "view",
      "type": "function",
      "signature": "0xf653b81e"
    },
    {
      "anonymous": false,
      "inputs": [
        {
          "indexed": true,
          "name": "owner",
          "type": "address"
        },
        {
          "indexed": false,
          "name": "name",
          "type": "string"
        },
        {
          "indexed": false,
          "name": "birthday",
          "type": "string"
        },
        {
          "indexed": false,
          "name": "driversLicenseNumber",
          "type": "uint256"
        }
      ],
      "name": "IdentityCreated",
      "type": "event",
      "signature": "0xb44d04e3995e2588cd8d1bf7a7f2ae78c07025d4f4d28c651612bcf4519c241f"
    },
    {
      "constant": false,
      "inputs": [
        {
          "name": "_name",
          "type": "string"
        },
        {
          "name": "_birthday",
          "type": "string"
        },
        {
          "name": "_driversLicenseNumber",
          "type": "uint256"
        }
      ],
      "name": "createIdentity",
      "outputs": [],
      "payable": false,
      "stateMutability": "nonpayable",
      "type": "function",
      "signature": "0x584f09b0"
    },
    {
      "constant": true,
      "inputs": [
        {
          "name": "_owner",
          "type": "address"
        }
      ],
      "name": "getIdentity",
      "outputs": [
        {
          "name": "",
          "type": "string"
        },
        {
          "name": "",
          "type": "string"
        },
        {
          "name": "",
          "type": "uint256"
        }
      ],
      "payable": false,
      "stateMutability": "view",
      "type": "function",
      "signature": "0x2fea7b81"
    }
  ],
  "bytecode": "0x608060405234801561001057600080fd5b50610cb8806100206000396000f3fe608060405260043610610062576000357c0100000000000000000000000000000000000000000000000000000000900463ffffffff1680630f903210146100675780632fea7b81146100ba578063584f09b0146101f7578063f653b81e14610360575b600080fd5b34801561007357600080fd5b506100a06004803603602081101561008a57600080fd5b81019080803590602001909291905050506104d0565b604051808215151515815260200191505060405180910390f35b3480156100c657600080fd5b50610109600480360360208110156100dd57600080fd5b81019080803573ffffffffffffffffffffffffffffffffffffffff1690602001909291905050506104f0565b604051808060200180602001848152602001838103835286818151815260200191508051906020019080838360005b83811015610153578082015181840152602081019050610138565b50505050905090810190601f1680156101805780820380516001836020036101000a031916815260200191505b50838103825285818151815260200191508051906020019080838360005b838110156101b957808201518184015260208101905061019e565b50505050905090810190601f1680156101e65780820380516001836020036101000a031916815260200191505b509550505050505060405180910390f35b34801561020357600080fd5b5061035e6004803603606081101561021a57600080fd5b810190808035906020019064010000000081111561023757600080fd5b82018360208201111561024957600080fd5b8035906020019184600183028401116401000000008311171561026b57600080fd5b91908080601f016020809104026020016040519081016040528093929190818152602001838380828437600081840152601f19601f820116905080830192505050505050509192919290803590602001906401000000008111156102ce57600080fd5b8201836020820111156102e057600080fd5b8035906020019184600183028401116401000000008311171561030257600080fd5b91908080601f016020809104026020016040519081016040528093929190818152602001838380828437600081840152601f19601f82011690508083019250505050505050919291929080359060200190929190505050610710565b005b34801561036c57600080fd5b506103af6004803603602081101561038357600080fd5b81019080803573ffffffffffffffffffffffffffffffffffffffff169060200190929190505050610a28565b6040518080602001806020018581526020018473ffffffffffffffffffffffffffffffffffffffff1673ffffffffffffffffffffffffffffffffffffffff168152602001838103835287818151815260200191508051906020019080838360005b8381101561042b578082015181840152602081019050610410565b50505050905090810190601f1680156104585780820380516001836020036101000a031916815260200191505b50838103825286818151815260200191508051906020019080838360005b83811015610491578082015181840152602081019050610476565b50505050905090810190601f1680156104be5780820380516001836020036101000a031916815260200191505b50965050505050505060405180910390f35b60016020528060005260406000206000915054906101000a900460ff1681565b60608060006104fd610ba8565b6000808673ffffffffffffffffffffffffffffffffffffffff1673ffffffffffffffffffffffffffffffffffffffff16815260200190815260200160002060806040519081016040529081600082018054600181600116156101000203166002900480601f0160208091040260200160405190810160405280929190818152602001828054600181600116156101000203166002900480156105e05780601f106105b5576101008083540402835291602001916105e0565b820191906000526020600020905b8154815290600101906020018083116105c357829003601f168201915b50505050508152602001600182018054600181600116156101000203166002900480601f0160208091040260200160405190810160405280929190818152602001828054600181600116156101000203166002900480156106825780601f1061065757610100808354040283529160200191610682565b820191906000526020600020905b81548152906001019060200180831161066557829003601f168201915b50505050508152602001600282015481526020016003820160009054906101000a900473ffffffffffffffffffffffffffffffffffffffff1673ffffffffffffffffffffffffffffffffffffffff1673ffffffffffffffffffffffffffffffffffffffff16815250509050806000015181602001518260400151829250819150935093509350509193909250565b6001600082815260200190815260200160002060009054906101000a900460ff161515156107cc576040517f08c379a000000000000000000000000000000000000000000000000000000000815260040180806020018281038252602a8152602001807f4472697665722773206c6963656e7365206e756d62657220616c72656164792081526020017f726567697374657265640000000000000000000000000000000000000000000081525060400191505060405180910390fd5b6080604051908101604052808481526020018381526020018281526020013373ffffffffffffffffffffffffffffffffffffffff168152506000803373ffffffffffffffffffffffffffffffffffffffff1673ffffffffffffffffffffffffffffffffffffffff168152602001908152602001600020600082015181600001908051906020019061085e929190610be7565b50602082015181600101908051906020019061087b929190610be7565b506040820151816002015560608201518160030160006101000a81548173ffffffffffffffffffffffffffffffffffffffff021916908373ffffffffffffffffffffffffffffffffffffffff1602179055509050503373ffffffffffffffffffffffffffffffffffffffff167fb44d04e3995e2588cd8d1bf7a7f2ae78c07025d4f4d28c651612bcf4519c241f848484604051808060200180602001848152602001838103835286818151815260200191508051906020019080838360005b8381101561095557808201518184015260208101905061093a565b50505050905090810190601f1680156109825780820380516001836020036101000a031916815260200191505b50838103825285818151815260200191508051906020019080838360005b838110156109bb5780820151818401526020810190506109a0565b50505050905090810190601f1680156109e85780820380516001836020036101000a031916815260200191505b509550505050505060405180910390a2600180600083815260200190815260200160002060006101000a81548160ff021916908315150217905550505050565b6000602052806000526040600020600091509050806000018054600181600116156101000203166002900480601f016020809104026020016040519081016040528092919081815260200182805460018160011615610100020316600290048015610ad45780601f10610aa957610100808354040283529160200191610ad4565b820191906000526020600020905b815481529060010190602001808311610ab757829003601f168201915b505050505090806001018054600181600116156101000203166002900480601f016020809104026020016040519081016040528092919081815260200182805460018160011615610100020316600290048015610b725780601f10610b4757610100808354040283529160200191610b72565b820191906000526020600020905b815481529060010190602001808311610b5557829003601f168201915b5050505050908060020154908060030160009054906101000a900473ffffffffffffffffffffffffffffffffffffffff16905084565b608060405190810160405280606081526020016060815260200160008152602001600073ffffffffffffffffffffffffffffffffffffffff1681525090565b828054600181600116156101000203166002900490600052602060002090601f016020900481019282601f10610c2857805160ff1916838001178555610c56565b82800160010185558215610c56579182015b82811115610c55578251825591602001919060010190610c3a565b5b509050610c639190610c67565b5090565b610c8991905b80821115610c85576000816000905550600101610c6d565b5090565b9056fea165627a7a72305820b9c1430525ca149940f324d907ba16568f98e223221bb0fe1b90780258b709d30029",
  "source": "pragma solidity >=0.4.22 <0.9.0;\n\ncontract DigitalIdentityCard {\n    struct Identity {\n        string name;\n        string birthday;\n        uint256 driversLicenseNumber;\n        address owner;\n    }\n\n    mapping(address => Identity) public identities;\n    mapping(uint256 => bool) public isDriverLicenseNumberRegistered; // Mapping to track registered driver's license numbers\n\n    event IdentityCreated(address indexed owner, string name, string birthday, uint256 driversLicenseNumber);\n\n    function createIdentity(string memory _name, string memory _birthday, uint256 _driversLicenseNumber) public {\n        // Check if driver's license number is already registered\n        require(!isDriverLicenseNumberRegistered[_driversLicenseNumber], \"Driver's license number already registered\");\n\n        identities[msg.sender] = Identity(_name, _birthday, _driversLicenseNumber, msg.sender);\n        emit IdentityCreated(msg.sender, _name, _birthday, _driversLicenseNumber);\n\n        // Mark the driver's license number as registered\n        isDriverLicenseNumberRegistered[_driversLicenseNumber] = true;\n    }\n\n    function getIdentity(address _owner) public view returns (string memory, string memory, uint256) {\n        Identity memory identity = identities[_owner];\n        return (identity.name, identity.birthday, identity.driversLicenseNumber);\n    }\n}\n",
  "sourcePath": "/Users/Everett/Desktop/Zk-IDcheck/contracts/idCard.sol",
  "compiler": {
    "name": "solc",
    "version": "0.5.0+commit.1d4f565a.Emscripten.clang"
  },
  "schemaVersion": "3.0.1",
  "updatedAt": "2024-03-24T01:54:06.407Z",
  "devdoc": {
    "methods": {}
  },
  "userdoc": {
    "methods": {}
  }
}